{
  "transactions": [
    {
      "hash": "0x0b1daf966f275137614575489c0c18a74c3f2c5e29174c608aea2cd1c824bccb",
      "transactionType": "CALL",
      "contractName": null,
      "contractAddress": "0xcce6b1fc03148c1a79793aecf13fddd67dcedbb8",
      "function": "authorizeCitizensByBatch(bytes32[],string[],address[])",
      "arguments": [
        "[0x3a24bf2ccadb0640bd083251ab6d2bb77d5745122544d455db9542cdb934344e, 0x6bdcd6561cb73d3bcbd785cab09a28ba8ba19df9a17cf4b31aace0d85122adcb, 0x837df470f9f9bb4425ba57e3921a8de22de7fdea0bfdef69f87fa44ab90b6bab]",
        "[Dayo, Joy, Taiwo]",
        "[0x71d176A223D9E7cfd2F824324412C51b3a7Bd01C, 0xA67653B02E095665D79e127855c2657e1E01eEdb, 0xaC1e875d4DF9fE277144049272b7C5Ccab56BEBc]"
      ],
      "transaction": {
        "from": "0x9fd152eb32f453d21271558c3ae89ae6a116f869",
        "to": "0xcce6b1fc03148c1a79793aecf13fddd67dcedbb8",
        "gas": "0x6a2b4",
        "value": "0x0",
        "input": "0xc2e43186000000000000000000000000000000000000000000000000000000000000006000000000000000000000000000000000000000000000000000000000000000e0000000000000000000000000000000000000000000000000000000000000022000000000000000000000000000000000000000000000000000000000000000033a24bf2ccadb0640bd083251ab6d2bb77d5745122544d455db9542cdb934344e6bdcd6561cb73d3bcbd785cab09a28ba8ba19df9a17cf4b31aace0d85122adcb837df470f9f9bb4425ba57e3921a8de22de7fdea0bfdef69f87fa44ab90b6bab0000000000000000000000000000000000000000000000000000000000000003000000000000000000000000000000000000000000000000000000000000006000000000000000000000000000000000000000000000000000000000000000a000000000000000000000000000000000000000000000000000000000000000e000000000000000000000000000000000000000000000000000000000000000044461796f0000000000000000000000000000000000000000000000000000000000000000000000000000000000000000000000000000000000000000000000034a6f7900000000000000000000000000000000000000000000000000000000000000000000000000000000000000000000000000000000000000000000000005546169776f000000000000000000000000000000000000000000000000000000000000000000000000000000000000000000000000000000000000000000000300000000000000000000000071d176a223d9e7cfd2f824324412c51b3a7bd01c000000000000000000000000a67653b02e095665d79e127855c2657e1e01eedb000000000000000000000000ac1e875d4df9fe277144049272b7c5ccab56bebc",
        "nonce": "0x58",
        "chainId": "0x128"
      },
      "additionalContracts": [],
      "isFixedGasLimit": false
    }
  ],
  "receipts": [
    {
      "status": "0x1",
      "cumulativeGasUsed": "0x4cdd5",
      "logs": [],
      "logsBloom": "0x00000000000000000000000000000000000000000000000000000000000000000000000000000000000000000000000000000000000000000000000000000000000000000000000000000000000000000000000000000000000000000000000000000000000000000000000000000000000000000000000000000000000000000000000000000000000000000000000000000000000000000000000000000000000000000000000000000000000000000000000000000000000000000000000000000000000000000000000000000000000000000000000000000000000000000000000000000000000000000000000000000000000000000000000000000000",
      "type": "0x2",
      "transactionHash": "0x0b1daf966f275137614575489c0c18a74c3f2c5e29174c608aea2cd1c824bccb",
      "transactionIndex": "0xd",
      "blockHash": "0xd15dcf90af7c5126ffdd7f19a45e630dcfb876b8dcc53ae0053fadd60d4d6018",
      "blockNumber": "0x1f6c726",
      "gasUsed": "0x4cdd5",
      "effectiveGasPrice": "0xd63445f000",
      "from": "0x9fd152eb32f453d21271558c3ae89ae6a116f869",
      "to": "0xcce6b1fc03148c1a79793aecf13fddd67dcedbb8",
      "contractAddress": "0xcce6b1fc03148c1a79793aecf13fddd67dcedbb8",
      "root": "0x56e81f171bcc55a6ff8345e692c0f86e5b48e01b996cadc001622fb5e363b421"
    }
  ],
  "libraries": [],
  "pending": [],
  "returns": {},
  "timestamp": 1773947768584,
  "chain": 296,
  "commit": "7f53370"
}