{
  "transactions": [
    {
      "hash": "0x5926eab288180ed486dc9b174efc9524dd53f9c6d49647356cfe80ba795b67bf",
      "transactionType": "CALL",
      "contractName": null,
      "contractAddress": "0xcce6b1fc03148c1a79793aecf13fddd67dcedbb8",
      "function": "authorizeCitizensByBatch(bytes32[],string[],address[])",
      "arguments": [
        "[0x92971c0de57766c8b579d0d9a88598c12c111ec1f5d4498973a90df316241d22, 0x536538a3d170fe94c2b557448622b1eb4fbd9c679468ae4fd037ebd0b2fb1377, 0x3d936f4cfe84c1f069ecdc2a9de6c685605938424ae0d6307ae263e1a9f89bbc, 0xea0fe3d3969329c04281f2fbcabd4b5fd0272ab9fc4806ea63503f490204766e, 0xe0a50bf481419a2cfe4e60d6439277a2425355b96a6395542d69da413a2550bd]",
        "[Dolapo, Musab, James, Anthony, Emejulu]",
        "[0x95E864bC6EF2BDD5713DA42a28C876F34f6c625d, 0x22D0fF871E0C2D73FbfB6C5C7C3f79FB547AC37D, 0x1Ef0E1De9F0ac2255a42e8987692f89F296dd670, 0xa00E2C8B01DF64B14F93D6A429cFFeff7E3258A3, 0x1915486b06e3e013cF8F65c9BDd85bC9ccFDD27D]"
      ],
      "transaction": {
        "from": "0x9fd152eb32f453d21271558c3ae89ae6a116f869",
        "to": "0xcce6b1fc03148c1a79793aecf13fddd67dcedbb8",
        "gas": "0xb4381",
        "value": "0x0",
        "input": "0xc2e43186000000000000000000000000000000000000000000000000000000000000006000000000000000000000000000000000000000000000000000000000000001200000000000000000000000000000000000000000000000000000000000000320000000000000000000000000000000000000000000000000000000000000000592971c0de57766c8b579d0d9a88598c12c111ec1f5d4498973a90df316241d22536538a3d170fe94c2b557448622b1eb4fbd9c679468ae4fd037ebd0b2fb13773d936f4cfe84c1f069ecdc2a9de6c685605938424ae0d6307ae263e1a9f89bbcea0fe3d3969329c04281f2fbcabd4b5fd0272ab9fc4806ea63503f490204766ee0a50bf481419a2cfe4e60d6439277a2425355b96a6395542d69da413a2550bd000000000000000000000000000000000000000000000000000000000000000500000000000000000000000000000000000000000000000000000000000000a000000000000000000000000000000000000000000000000000000000000000e00000000000000000000000000000000000000000000000000000000000000120000000000000000000000000000000000000000000000000000000000000016000000000000000000000000000000000000000000000000000000000000001a00000000000000000000000000000000000000000000000000000000000000006446f6c61706f000000000000000000000000000000000000000000000000000000000000000000000000000000000000000000000000000000000000000000054d7573616200000000000000000000000000000000000000000000000000000000000000000000000000000000000000000000000000000000000000000000054a616d65730000000000000000000000000000000000000000000000000000000000000000000000000000000000000000000000000000000000000000000007416e74686f6e79000000000000000000000000000000000000000000000000000000000000000000000000000000000000000000000000000000000000000007456d656a756c7500000000000000000000000000000000000000000000000000000000000000000000000000000000000000000000000000000000000000000500000000000000000000000095e864bc6ef2bdd5713da42a28c876f34f6c625d00000000000000000000000022d0ff871e0c2d73fbfb6c5c7c3f79fb547ac37d0000000000000000000000001ef0e1de9f0ac2255a42e8987692f89f296dd670000000000000000000000000a00e2c8b01df64b14f93d6a429cffeff7e3258a30000000000000000000000001915486b06e3e013cf8f65c9bdd85bc9ccfdd27d",
        "nonce": "0x56",
        "chainId": "0x128"
      },
      "additionalContracts": [],
      "isFixedGasLimit": false
    }
  ],
  "receipts": [
    {
      "status": "0x1",
      "cumulativeGasUsed": "0x7b3a1",
      "logs": [],
      "logsBloom": "0x00000000000000000000000000000000000000000000000000000000000000000000000000000000000000000000000000000000000000000000000000000000000000000000000000000000000000000000000000000000000000000000000000000000000000000000000000000000000000000000000000000000000000000000000000000000000000000000000000000000000000000000000000000000000000000000000000000000000000000000000000000000000000000000000000000000000000000000000000000000000000000000000000000000000000000000000000000000000000000000000000000000000000000000000000000000",
      "type": "0x2",
      "transactionHash": "0x5926eab288180ed486dc9b174efc9524dd53f9c6d49647356cfe80ba795b67bf",
      "transactionIndex": "0x6",
      "blockHash": "0x5ec73bd7cb4bd4de55ec728fbb0eacc0567dc8d4c7008930bc312b62051a1763",
      "blockNumber": "0x1f67d7b",
      "gasUsed": "0x7b3a1",
      "effectiveGasPrice": "0xd18c2e2800",
      "from": "0x9fd152eb32f453d21271558c3ae89ae6a116f869",
      "to": "0xcce6b1fc03148c1a79793aecf13fddd67dcedbb8",
      "contractAddress": "0xcce6b1fc03148c1a79793aecf13fddd67dcedbb8",
      "root": "0x56e81f171bcc55a6ff8345e692c0f86e5b48e01b996cadc001622fb5e363b421"
    }
  ],
  "libraries": [],
  "pending": [],
  "returns": {},
  "timestamp": 1773910052292,
  "chain": 296,
  "commit": "7d28ca5"
}