{
  "transactions": [
    {
      "hash": "0x97736036629c4b7e090de4eceba1899a82241c827e50c2301521d31362c88fbe",
      "transactionType": "CALL",
      "contractName": null,
      "contractAddress": "0xad049cad0f9a74de3433c1fa3b24af4b65653378",
      "function": "authorizeCitizensByBatch(bytes32[],string[],address[])",
      "arguments": [
        "[0x18e590d1042994243b8bf6c596bed6e16effac713b6f5110e3241b8ea812394d, 0xe57ecde34321684370385f1df74242c16f7471a369de8c605c381284bf9d5518, 0x6fa3e554978487ef17c04f665b0d6461aa8d29ef27681dc1ce40cfad08de37d7, 0xc203917c9579e2d37dd029219dd33855dd3fbb3e3d9022927590da2d29341f2f, 0x383bfd13ad60912d302a33adcf8c5235bd39c7576db191a007ec18acb0cb9ba4, 0x353654aaa1f082fa0dd49f30c1fa2812d62568797e7ed58c071862190ecae9a8]",
        "[Emejulu, Raymond, Dolapo, Musab, James, Tobi]",
        "[0x1915486b06e3e013cF8F65c9BDd85bC9ccFDD27D, 0x9FD152Eb32f453D21271558c3Ae89AE6a116f869, 0x95E864bC6EF2BDD5713DA42a28C876F34f6c625d, 0x22D0fF871E0C2D73FbfB6C5C7C3f79FB547AC37D, 0x1Ef0E1De9F0ac2255a42e8987692f89F296dd670, 0xa00E2C8B01DF64B14F93D6A429cFFeff7E3258A3]"
      ],
      "transaction": {
        "from": "0x9fd152eb32f453d21271558c3ae89ae6a116f869",
        "to": "0xad049cad0f9a74de3433c1fa3b24af4b65653378",
        "gas": "0xdb4dc",
        "value": "0x0",
        "input": "0xc2e431860000000000000000000000000000000000000000000000000000000000000060000000000000000000000000000000000000000000000000000000000000014000000000000000000000000000000000000000000000000000000000000003a0000000000000000000000000000000000000000000000000000000000000000618e590d1042994243b8bf6c596bed6e16effac713b6f5110e3241b8ea812394de57ecde34321684370385f1df74242c16f7471a369de8c605c381284bf9d55186fa3e554978487ef17c04f665b0d6461aa8d29ef27681dc1ce40cfad08de37d7c203917c9579e2d37dd029219dd33855dd3fbb3e3d9022927590da2d29341f2f383bfd13ad60912d302a33adcf8c5235bd39c7576db191a007ec18acb0cb9ba4353654aaa1f082fa0dd49f30c1fa2812d62568797e7ed58c071862190ecae9a8000000000000000000000000000000000000000000000000000000000000000600000000000000000000000000000000000000000000000000000000000000c000000000000000000000000000000000000000000000000000000000000001000000000000000000000000000000000000000000000000000000000000000140000000000000000000000000000000000000000000000000000000000000018000000000000000000000000000000000000000000000000000000000000001c000000000000000000000000000000000000000000000000000000000000002000000000000000000000000000000000000000000000000000000000000000007456d656a756c750000000000000000000000000000000000000000000000000000000000000000000000000000000000000000000000000000000000000000075261796d6f6e64000000000000000000000000000000000000000000000000000000000000000000000000000000000000000000000000000000000000000006446f6c61706f000000000000000000000000000000000000000000000000000000000000000000000000000000000000000000000000000000000000000000054d7573616200000000000000000000000000000000000000000000000000000000000000000000000000000000000000000000000000000000000000000000054a616d65730000000000000000000000000000000000000000000000000000000000000000000000000000000000000000000000000000000000000000000004546f62690000000000000000000000000000000000000000000000000000000000000000000000000000000000000000000000000000000000000000000000060000000000000000000000001915486b06e3e013cf8f65c9bdd85bc9ccfdd27d0000000000000000000000009fd152eb32f453d21271558c3ae89ae6a116f86900000000000000000000000095e864bc6ef2bdd5713da42a28c876f34f6c625d00000000000000000000000022d0ff871e0c2d73fbfb6c5c7c3f79fb547ac37d0000000000000000000000001ef0e1de9f0ac2255a42e8987692f89f296dd670000000000000000000000000a00e2c8b01df64b14f93d6a429cffeff7e3258a3",
        "nonce": "0x39",
        "chainId": "0x128"
      },
      "additionalContracts": [],
      "isFixedGasLimit": false
    }
  ],
  "receipts": [
    {
      "status": "0x1",
      "cumulativeGasUsed": "0xa4c9f",
      "logs": [],
      "logsBloom": "0x00000000000000000000000000000000000000000000000000000000000000000000000000000000000000000000000000000000000000000000000000000000000000000000000000000000000000000000000000000000000000000000000000000000000000000000000000000000000000000000000000000000000000000000000000000000000000000000000000000000000000000000000000000000000000000000000000000000000000000000000000000000000000000000000000000000000000000000000000000000000000000000000000000000000000000000000000000000000000000000000000000000000000000000000000000000",
      "type": "0x2",
      "transactionHash": "0x97736036629c4b7e090de4eceba1899a82241c827e50c2301521d31362c88fbe",
      "transactionIndex": "0x6",
      "blockHash": "0xb6f77d59b4353ee69d9f9be3f189c90cba51a0c47d1c5d605d0539d09735ea9f",
      "blockNumber": "0x1f63d7a",
      "gasUsed": "0x95f39",
      "effectiveGasPrice": "0xcf38224400",
      "from": "0x9fd152eb32f453d21271558c3ae89ae6a116f869",
      "to": "0xad049cad0f9a74de3433c1fa3b24af4b65653378",
      "contractAddress": "0xad049cad0f9a74de3433c1fa3b24af4b65653378",
      "root": "0x56e81f171bcc55a6ff8345e692c0f86e5b48e01b996cadc001622fb5e363b421"
    }
  ],
  "libraries": [],
  "pending": [],
  "returns": {},
  "timestamp": 1773877280776,
  "chain": 296,
  "commit": "bd9c592"
}