{
  "transactions": [
    {
      "hash": "0x72524283df7075a017039411a7a8a07ab67ac3c3b67860abe0b77790adc5ae5e",
      "transactionType": "CALL",
      "contractName": null,
      "contractAddress": "0xcce6b1fc03148c1a79793aecf13fddd67dcedbb8",
      "function": "authorizeCitizensByBatch(bytes32[],string[],address[])",
      "arguments": [
        "[0x32112b311c0d3b26940a0aa784e994d2b8e6cd6657e61399f647b0ff26ddd2de]",
        "[Raymond]",
        "[0x9FD152Eb32f453D21271558c3Ae89AE6a116f869]"
      ],
      "transaction": {
        "from": "0x9fd152eb32f453d21271558c3ae89ae6a116f869",
        "to": "0xcce6b1fc03148c1a79793aecf13fddd67dcedbb8",
        "gas": "0x2f1f8",
        "value": "0x0",
        "input": "0xc2e43186000000000000000000000000000000000000000000000000000000000000006000000000000000000000000000000000000000000000000000000000000000a00000000000000000000000000000000000000000000000000000000000000120000000000000000000000000000000000000000000000000000000000000000132112b311c0d3b26940a0aa784e994d2b8e6cd6657e61399f647b0ff26ddd2de0000000000000000000000000000000000000000000000000000000000000001000000000000000000000000000000000000000000000000000000000000002000000000000000000000000000000000000000000000000000000000000000075261796d6f6e640000000000000000000000000000000000000000000000000000000000000000000000000000000000000000000000000000000000000000010000000000000000000000009fd152eb32f453d21271558c3ae89ae6a116f869",
        "nonce": "0x4e",
        "chainId": "0x128"
      },
      "additionalContracts": [],
      "isFixedGasLimit": false
    }
  ],
  "receipts": [
    {
      "status": "0x1",
      "cumulativeGasUsed": "0x221dd",
      "logs": [],
      "logsBloom": "0x00000000000000000000000000000000000000000000000000000000000000000000000000000000000000000000000000000000000000000000000000000000000000000000000000000000000000000000000000000000000000000000000000000000000000000000000000000000000000000000000000000000000000000000000000000000000000000000000000000000000000000000000000000000000000000000000000000000000000000000000000000000000000000000000000000000000000000000000000000000000000000000000000000000000000000000000000000000000000000000000000000000000000000000000000000000",
      "type": "0x2",
      "transactionHash": "0x72524283df7075a017039411a7a8a07ab67ac3c3b67860abe0b77790adc5ae5e",
      "transactionIndex": "0xa",
      "blockHash": "0x87628e7aca37643e93620af0415bfdc831c502a0df2627809a3659ae79ae9bee",
      "blockNumber": "0x1f65d33",
      "gasUsed": "0x221dd",
      "effectiveGasPrice": "0xcf38224400",
      "from": "0x9fd152eb32f453d21271558c3ae89ae6a116f869",
      "to": "0xcce6b1fc03148c1a79793aecf13fddd67dcedbb8",
      "contractAddress": "0xcce6b1fc03148c1a79793aecf13fddd67dcedbb8",
      "root": "0x56e81f171bcc55a6ff8345e692c0f86e5b48e01b996cadc001622fb5e363b421"
    }
  ],
  "libraries": [],
  "pending": [],
  "returns": {},
  "timestamp": 1773893523278,
  "chain": 296,
  "commit": "7d28ca5"
}