{
  "transactions": [
    {
      "hash": "0x6ea7bd8596338de9423bf58e6f61c846fbe3d810fb6a8b2b963a975ac783e333",
      "transactionType": "CALL",
      "contractName": null,
      "contractAddress": "0xcce6b1fc03148c1a79793aecf13fddd67dcedbb8",
      "function": "authorizeCitizensByBatch(bytes32[],string[],address[])",
      "arguments": [
        "[0xeb1a90b238e332f8b466664b0d4c88a3ae05c8b3a23793342ba108058a378dff]",
        "[Gogo]",
        "[0x7571707A5dF03406772508A1858DA3f94AE27C12]"
      ],
      "transaction": {
        "from": "0x9fd152eb32f453d21271558c3ae89ae6a116f869",
        "to": "0xcce6b1fc03148c1a79793aecf13fddd67dcedbb8",
        "gas": "0x2cab5",
        "value": "0x0",
        "input": "0xc2e43186000000000000000000000000000000000000000000000000000000000000006000000000000000000000000000000000000000000000000000000000000000a000000000000000000000000000000000000000000000000000000000000001200000000000000000000000000000000000000000000000000000000000000001eb1a90b238e332f8b466664b0d4c88a3ae05c8b3a23793342ba108058a378dff000000000000000000000000000000000000000000000000000000000000000100000000000000000000000000000000000000000000000000000000000000200000000000000000000000000000000000000000000000000000000000000004476f676f0000000000000000000000000000000000000000000000000000000000000000000000000000000000000000000000000000000000000000000000010000000000000000000000007571707a5df03406772508a1858da3f94ae27c12",
        "nonce": "0x57",
        "chainId": "0x128"
      },
      "additionalContracts": [],
      "isFixedGasLimit": false
    }
  ],
  "receipts": [
    {
      "status": "0x1",
      "cumulativeGasUsed": "0x56a65",
      "logs": [],
      "logsBloom": "0x00000000000000000000000000000000000000000000000000000000000000000000000000000000000000000000000000000000000000000000000000000000000000000000000000000000000000000000000000000000000000000000000000000000000000000000000000000000000000000000000000000000000000000000000000000000000000000000000000000000000000000000000000000000000000000000000000000000000000000000000000000000000000000000000000000000000000000000000000000000000000000000000000000000000000000000000000000000000000000000000000000000000000000000000000000000",
      "type": "0x2",
      "transactionHash": "0x6ea7bd8596338de9423bf58e6f61c846fbe3d810fb6a8b2b963a975ac783e333",
      "transactionIndex": "0x0",
      "blockHash": "0x842a0eaae575fae9eff0ada749ecec22daef0abf2c67af0555e44cf7e3f14784",
      "blockNumber": "0x1f67f52",
      "gasUsed": "0x1e8b1",
      "effectiveGasPrice": "0xd18c2e2800",
      "from": "0x9fd152eb32f453d21271558c3ae89ae6a116f869",
      "to": "0xcce6b1fc03148c1a79793aecf13fddd67dcedbb8",
      "contractAddress": "0xcce6b1fc03148c1a79793aecf13fddd67dcedbb8",
      "root": "0x56e81f171bcc55a6ff8345e692c0f86e5b48e01b996cadc001622fb5e363b421"
    }
  ],
  "libraries": [],
  "pending": [],
  "returns": {},
  "timestamp": 1773910994395,
  "chain": 296,
  "commit": "7d28ca5"
}